:020000040000FA
:1000000028290020F902000001030000030300007A
:1000100005030000070300000903000000000000C2
:100020000000000000000000000000000B030000C2
:100030000D030000000000000F030000110300008A
:1000400013030000130300000D060000110400005C
:100050002104000013030000130300001303000039
:100060001303000013030000130300001303000038
:100070001303000013030000130300001303000028
:100080001303000013030000130300001303000018
:100090001303000013030000130300001303000008
:1000A00013030000130300001303000013030000F8
:1000B0001303000013030000000000000000000014
:1000C00013030000130300001303000013030000D8
:1000D00013030000130300001303000013030000C8
:1000E00013030000130300001303000000000000CE
:1000F00000000000130300000000000013030000D4
:1001000000000000000000000000000000000000EF
:1001100000000000000000000000000000000000DF
:1001200000000000000000000000000000000000CF
:1001300000000000000000000000000000000000BF
:1001400000000000000000000000000000000000AF
:10015000000000000000000000000000000000009F
:10016000000000000000000000000000000000008F
:10017000000000000000000000000000000000007F
:10018000000000000000000000000000000000006F
:10019000000000000000000000000000000000005F
:1001A000000000000000000000000000000000004F
:1001B000000000000000000000000000000000003F
:1001C000000000000000000000000000000000002F
:1001D000000000000000000000000000000000001F
:1001E000000000000000000000000000000000000F
:1001F00000000000000000000000000000000000FF
:10020000DFF80CD000F0C2F800480047610A000097
:100210002829002030B4044654E8000F0D4644E875
:100220000053002BF8D1156030BC704730B4044641
:1002300054E8000F40EA010544E80053002BF7D1D1
:10024000156030BC704730B4044654E8000F00EA33
:10025000010544E80053002BF7D1156030BC70470E
:1002600030B4044654E8000F80EA010544E8005326
:10027000002BF7D1156030BC704730B4044654E809
:10028000000F00EB010544E80053002BF7D1156087
:1002900030BC704730B4044654E8000FA0EB0105B1
:1002A00044E80053002BF7D1156030BC704770B4A0
:1002B00004464FF0000054E8006F0D68AE4207BFDF
:1002C00044E80023012044E800630E60002B1CBFBB
:1002D0000020F0E770BC704730B4044654E8000FCB
:1002E00088422CBF451A054644E80053002BF5D13F
:1002F000156030BC7047000006488047064800473C
:10030000FEE7FEE7FEE7FEE7FEE7FEE7FEE7FEE7C5
:10031000FEE7FEE7310400000102000000487047DC
:100320002820000040EA01039B0703D009E008C928
:10033000121F08C0042AFAD203E011F8013B00F8AA
:10034000013B521EF9D27047D2B201E000F8012BF6
:10035000491EFBD270470022F6E710B513460A4645
:1003600004461946FFF7F0FF204610BD421C10F866
:10037000011B0029FBD1801A7047034611F8012B9D
:1003800000F8012B002AF9D118467047064C074D9A
:1003900006E0E06840F0010394E807009847103455
:1003A000AC42F6D3FFF730FFC4200000E420000089
:1003B00000F032B970B50E46144900EB400001EB75
:1003C000C0051446E86A183520B101280FD002286C
:1003D00005D113E0284600F053F9A04201D20024D1
:1003E00011E022463146284600F082F90BE028460B
:1003F00000F046F9A042F4D20446F2E7314628461E
:1004000000F049F90446204670BD0000A006002017
:100410000149024801F070BB7C0000200030004020
:1004200002494FF0402001F067BB0000B0000020FF
:1004300030B54FF0805000228300D0F83011C3F85F
:100440000C21C3F81021624B1A60624B1B68624C8E
:100450002360604B1B1D1B68241D23605D4B08330C
:100460001B68241D23605B4B0C331B68241D236019
:10047000584B10331B68241D2360564B14331B68E4
:10048000241D2360534B18331B68534C20342360C6
:10049000504B1C331B68241D23604E4B20331B68BC
:1004A000241D23604B4B24331B68241D2360494BC0
:1004B00028331B68241D2360464B2C331B68241DE6
:1004C0002360444B30331B68434C40342360414B22
:1004D00034331B68241D23603E4B38331B68241DB6
:1004E00023603C4B3C331B68241D2360394B403355
:1004F0001B68241D23600124082902D1D0F834315F
:1005000013B1082904D006E0354B3449196005E0E1
:10051000D0F8343113B1082904D006E0314BFB2167
:10052000196005E0D0F8343113B1082908D00EE085
:1005300090F858322C48016863F30301016002E02F
:10054000D0F834311BB929494FF4007008602848AD
:100550000168C90702D06FF00101016025480168F8
:1005600041F470010160BFF34F8FBFF36F8F4FF005
:100570001021D1F80002002803DBD1F80402002882
:1005800022DA1D4B1C601D480468002CFCD012248C
:10059000C1F800420568002DFCD0C1F80442016892
:1005A0000029FCD01A6001680029FCD0BFF34F8FEE
:1005B00010487C380168124A01F4E061114301607F
:1005C000BFF34F8F00BFFDE70F490E48086030BDF5
:1005D000380500400404001020C500404881030095
:1005E0008C56004018F50040E40E00404096024052
:1005F0000004004088ED00E004E5014000E4014013
:100600000400FA050090D00378000020014800683B
:10061000004700001000002010B5124C022020619D
:10062000606111A0A06104F17800E0614FF40070F6
:1006300020620020A06260620BA1A164E06204F568
:100640001E71E1641021A065C4E91410E06509A1E0
:10065000E01DFFF792FE08A12046FFF78EFE202046
:10066000A07110BDA00600205465726D696E616CAA
:1006700000000000525454005345474745520000C3
:100680000269C1688A4203D88068401A104400E0B9
:10069000501A401E70472DE9F047C4681746894636
:1006A00006464FF000083069A04201D9051B02E060
:1006B000B168201A0D1AB0686D1E001BA84200D840
:1006C0000546BD4200D33D4670682A46204449464F
:1006D000FFF728FEB0687F1B2C44A844A944A04221
:1006E00000D10024F460002FDDD14046BDE8F08742
:1006F0002DE9F04104468846D4E90207C51BE168AC
:10070000606816460844B54206D94146FFF70AFE1E
:10071000B819E060BDE8F0812A464146FFF702FEC5
:10072000761B08EB050132466068FFF7FBFDE660CB
:10073000F0E702E008C8121F08C1002AFAD170478A
:100740007047002001E001C1121F002AFBD1704751
:1007500072B600F095FE00BF00F0E2FC0028FBD16D
:1007600011481249401AC408012000EB044010A1AE
:1007700000F0EEFD11480068C00700D000BE022066
:1007800000EB04400EA100F0E3FDBFF34F8F0B48D8
:10079000E43801680E4A01F4E06111430160BFF3DF
:1007A0004F8F00BFFDE7000014210000F42000007F
:1007B000466174616C206572726F7200F0ED00E04A
:1007C00053797374656D2072657365740000000061
:1007D0000400FA050EB500210091CDE901106A462A
:1007E00044F20100FFF7B4FF0EBD00F003B800F0C3
:1007F00009B8000072B602480168491C01607047E0
:100800001800002003490868401E086000D162B645
:1008100070470000180000202DE9F0470546861CAF
:1008200090460F464FF001090020FFF7DEFF1B4CFA
:1008300020683860D4E90001401AA16804F21C471E
:10084000081A0EE00121384600F0D8F900F0BAF895
:100850000146384600F0D2F9D4E90001401AA168F7
:10086000081A401C8642EDD8B8F1000F03D00520CD
:1008700065F3891002E0062065F39F50A2682168A5
:10088000114004EB8101C8602068304420600020E2
:10089000FFF7ADFF4846BDE8F08700007C0200206E
:1008A00030B482680468531C8360A154D0E90112FB
:1008B0008A4202D330BC00F036BA30BC7047000028
:1008C000034803C8814201D10120704700207047CE
:1008D0007C02002010B50021024800F09AF980F354
:1008E000100010BD980600202DE9FC5F0E00834625
:1008F000DDE90C47C6F1000098469246814600D4D7
:100900000846012503E000BF90FBFAF06D1C50453E
:10091000FADAA84500D9454624B1002E01DB780754
:1009200000D5641EB80702D5B8F1000F0AD0F80749
:1009300008D13CB1A54205D220215846641EFFF7DC
:10094000AFFFF6E7002E02DA4E462D2102E07807CF
:1009500003D52B215846FFF7A3FF07F00300022819
:100960000BD1B8F1000F08D13CB1A54205D230211E
:100970005846641EFFF794FFF6E7CDE9004743466B
:1009800052463146584601F079FABDE8FC9F0246CE
:1009900000201268530713D502F00300012802D08B
:1009A00002280CD105E0C2F383100B68801C1844A8
:1009B00004E00223086803EB92521044086001200F
:1009C000704700002DE9FF410026234800F013F98D
:1009D0002148001F074600F00EF9204C6068009087
:1009E000A56800E000986946284004EB80000C30C0
:1009F000FFF7CDFF0028F5D101AA009901EA050310
:100A000004EB8303491CDB6842F82030401C009152
:100A10000228F2D3019800F0030001280BD002282D
:100A200010D10198032101EB90500099BDF80A60A4
:100A300001EB900005E00198BDF80A60C0F3831057
:100A400008440090384600F0D3F808B10098606080
:100A500004B03046BDE8F081940600207C020020FE
:100A6000002608B53146304600F0D4FC08B1FFF747
:100A7000B1FE00F047FB19481949401AC10803208C
:100A800000EB0140054617A100F062FC00F048FBB6
:100A90000028FBD100F0FAFF0024184821466A46DE
:100AA000012300F091FE28B901262846224614A110
:100AB00000F052FC00F034FB0028FBD1641CE4B2CF
:100AC0007F2CEAD946B9284617A100F041FC00BFA7
:100AD00000F026FB0028FBD1FEE7000014210000F7
:100AE000F4200000545749207363616E6E657220D4
:100AF000737461727465642E00000000341F00007E
:100B0000545749206465766963652064657465633C
:100B1000746564206174206164647265737320304D
:100B20007825782E000000004E6F2064657669639A
:100B3000652077617320666F756E642E000000007B
:100B40002DE9F047C5881E1DB6FBF5F78946B6FBB3
:100B5000F5F1044605FB176C407916686843DDF82B
:100B600020A0F718001F874200D9C61A166001E0BE
:100B70002468491E0029FBD1A5EB0C078846B74223
:100B800016D818E004EB0C00001D09EB0803BAF1BD
:100B9000000F3A4602D00146184600E01946FFF71A
:100BA000C1FB2468F61B4FF0000CB844B54201D9D4
:100BB000374600E02F46002EE4D1BDE8F087000064
:100BC00030B5024651B100F043FC0021074C08E06B
:100BD00034F821301568AB4202D11160002030BDDD
:100BE000491C8142F4D3052030BD00000000000004
:100BF000002100F009B8012100F010B808B56A46DC
:100C0000FFF73BFB009808BD08B56A46FFF71BFBE2
:100C100008BD08B56A46FFF7FDFA08BD08B56A4683
:100C2000FFF704FB009808BD08B56A46FFF732FBE2
:100C3000009808BD70B5044600252846FFF7D5FD8D
:100C400021686268086890420ED9401E08600178E9
:100C5000238AE26801FB0325227A2168101AC0B2B8
:100C60000A79824200D208710020FFF7C0FD2846B1
:100C700070BD70B505460C460020FFF7B6FDE8686C
:100C8000298A201AB0FBF1F12A681068431C13600E
:100C90000170BDE870400020FFF7A9BD10B530B16C
:100CA000017A42680368891AC9B21A6006E00E2008
:100CB00010BD03681A68541C1C601170491EC9B22B
:100CC000F7D2006800210171084610BD2DE9F041FE
:100CD000064604780B4815460F4640F82420083095
:100CE00040F82430487B10B1084600F07DFE0DB17D
:100CF000054A00E0002223463946301DBDE8F04198
:100D000000F0F0BC00000020B91A00000FB408B5D4
:100D10000399002904D004AA00926A4600F00FF853
:100D200001B05DF814FB10B582680446002A05D0B6
:100D3000D4E90403216898470020A06010BD2DE984
:100D4000FC4791460C00804676D014F8011B39B15F
:100D500025290ED04046FFF7A3FD20780028F4D1C6
:100D600098F80C00002867D04046BDE8FC47FFF724
:100D7000DABF0020012221782B291BD02D2902D097
:100D8000302908D102E040F0010001E040F002000B
:100D9000641C002AEFD100252A290ED02178A1F168
:100DA00030020A2A11D205EB850201EB4205641CD0
:100DB000303DF1E740F00400EAE7D9F800100B1DE0
:100DC000C9F800300968641C0D44217800232E29DD
:100DD0000BD114F8011FA1F130020A2A05D203EB4E
:100DE000830201EB4203303BF3E76C290DD0682905
:100DF0000BD0692921D00BDC252918D0582931D0F6
:100E000063290ED0642915D117E014F8011FECE70F
:100E1000702969D0732932D075291BD0782909D15E
:100E200020E0D9F80000011DC9F800100178404603
:100E3000FFF736FD641C90E76CE0D9F800100A1D3E
:100E4000C9F800200968CDE900500A224046FFF7A2
:100E50004BFDEFE7D9F800100A1DC9F8002009681A
:100E60000A2206E0D9F800100A1DC9F80020096816
:100E70001022CDE90050404601F000F8DAE7D9F839
:100E8000001000270A1DC9F800200E68C00705D110
:100E900012E04046761C7F1CFFF702FD31780029E6
:100EA000F7D104E0202140466D1EFFF7F9FCBD425A
:100EB000C0D9002DF6D1BDE74EB13046FFF756FA46
:100EC000074604E0202140466D1EFFF7E9FCBD42C5
:100ED00006D9002DF6D103E04046761CFFF7E0FC72
:100EE00031780029F8D1A5E7D9F80000011DC9F82B
:100EF0000010056830214046FFF7D2FC78214046BB
:100F0000FFF7CEFC08200021CDE9000103461022A6
:100F10002946B0E7BDE8FC8770B52028DDE9046507
:100F200002D24FF0A04402E0074C00F01F0041EA5B
:100F3000420141EA830141EA062104EB800041EAD3
:100F40000541C0F8001770BD0003005001B56846A8
:100F500000F006F8009A01219140C0F80C1508BD78
:100F60000168202902D24FF0A040704701F01F0114
:100F700001600148704700000003005001B5684659
:100F8000FFF7EEFF009A01219140C0F8081508BD57
:100F900030B5154A01460020D2F8104423460AE035
:100FA000DB681D79854205D1401C0A28F6DB4FF02D
:100FB000FF3030BD1B68002BF2D1431CF9D0CB6849
:100FC0001871D2F8103443B1DB68CC681B68236019
:100FD000D2F81024D268116030BDC2F81014C9686C
:100FE00000220A6030BD00007C0200207047FFF73D
:100FF000DFB9704708B5034A00924023024A00F067
:1010000005F808BD0D190000E4000020F0B595B00A
:101010001C4615460F4608461A9E00F0EBFA1821AA
:1010200009A8FFF798F90E96CDE909540023082284
:1010300003A9384600F0F3FA05980690BDF81000B1
:10104000ADF81C00BDF81200ADF81E0000208DF8B0
:1010500021000398082600F00300012802D002288E
:1010600018D032E003983346850AC0F3C2008DF8E9
:10107000200003980FA9C0F38314A200384600F0A3
:10108000CEFA09A8009006AB22460FA9284600F028
:101090000DFA1AE00398840DC0F3C2008DF8200009
:1010A000082C01D2254600E0082533462A460FA920
:1010B000384600F0B4FA2E44641B09AB06AA294650
:1010C0000FA800F051F9002CEAD1384600F098FA48
:1010D00015B0F0BD0A4A012902EBC00007D0022971
:1010E00007D0032907D0042907D000207047022029
:1010F00070470420704700797047407970470000BE
:10110000F420000010B5FFF772FF04210348FFF739
:101110003FFF02490120C968487110BDE42000006A
:101120002DE9F0478CB0FFF7CBFB18B100200CB0D5
:10113000BDE8F0877D4C0020C4F81804BFF34F8F42
:1011400060680290A5684FF00008284004EB80001A
:101150000CE000BFD4F8180470B9216802988142ED
:1011600001D86160E2E7284004EB80000C3002A95E
:10117000FFF70DFC0028EDD1002003AA029901EA37
:10118000050304EB8303491CDB6842F82030401C54
:1011900002910228F2D3039800F00300022802D043
:1011A00001284DD0A7E003985022810D8946B2EB6B
:1011B000905F00D850210E4666F39F50039008318F
:1011C0005B4800F0CEF9070078D000F013FA4346F0
:1011D000082203A9384600F02AFA029908F1080A01
:1011E0002940681A8000001D864222D94F4D0C35D7
:1011F00030B1C2B204EB8101301A90460C3104E0E8
:101200002946F2B2002590462846C6B253463846D3
:1012100000F00DFA0AEB080325B13246294638469C
:1012200000F005FA029909F1030001EB9000029029
:101230003BE004EB81015346324638460C31EFE780
:101240000398C0F38310062800D30620039960F3A7
:101250008911C1F38310801C03918100344800F090
:1012600080F9070047D000F0C5F94346082203A9DA
:10127000384600F0DCF908F1080800260FE0029873
:10128000434600EA0501401C04EB81010290042260
:1012900038460C3100F0CBF908F10408761C0398AD
:1012A000C0F38310B042EAD847B1D4F81054D4F850
:1012B000180478B1384600F0A3F931E01BE0E86883
:1012C0004079012804D12A68284639461268904797
:1012D000E8680568002DF2D1384600F091F9002049
:1012E000FFF783FAD4F8180408B902986060002068
:1012F000FFF77DFA14E0D4F8104405E02168204699
:1013000089688847E0680468002CF7D109480A49D1
:10131000401AC008022101EB004008A100F018F8B3
:10132000FFF7CEFA80F0010001E700007C02002008
:101330001C21000014210000F42000004261636BB6
:10134000656E647320666C757368656400000000E8
:1013500000231A4600F002BB08B5012300926A463A
:1013600000F0FCFA08BD00002DE9F0470E4680466B
:101370001C46924608293ED894F80C900020207311
:101380001946104600F06AFA0025B54206D218F850
:1013900005201AA12046FFF7B9FC03E019A1204659
:1013A000FFF7B4FC6D1C082DEFD317A12046FFF703
:1013B000ADFC0025B54210D218F80570FEF7AEFF5F
:1013C0000068C05D10F03E0F01D03A4600E02E22CA
:1013D0000EA12046FFF79AFC03E00DA12046FFF77F
:1013E00095FC6D1C082DE5D301222146504600F0E6
:1013F00017FA84F80C90BDE8F08700002025303201
:1014000078000000202020007C0000002563000000
:10141000200000000B4810B5FF2181600021016011
:101420004160C0F81814C0F8141480F8201406485D
:1014300000F0E4F8002803D1044800F000F900208F
:1014400010BD00007C0200201C210000981F00003D
:1014500002480349401AC008704700001C210000E0
:10146000F420000013B56846FFF7AAFB08B100207E
:101470001CBD0248009950F831001CBDF42000004A
:1014800070B509480125D0F8104480F8205407E0D1
:10149000E06845712168204649688847E06804682B
:1014A000002CF5D170BD00007C0200202DE9FF4723
:1014B00081460C9D00200C462F7B287398461646CB
:1014C0002946184600F0CAF9072E42D2DFE806F096
:1014D00004090F161F2A360049462846FFF716FC56
:1014E00037E0494628462268FFF710FC31E0D4E98E
:1014F000002349462846FFF709FC2AE0A06800902F
:10150000D4E9002349462846FFF700FC21E0D4E94E
:101510000201CDE90001D4E9002349462846FFF73E
:10152000F5FB16E004F1080007C88DE80700D4E9D0
:10153000002349462846FFF7E9FB0AE004F10800CA
:101540000FC88DE80F00D4E9002349462846FFF76D
:10155000DDFB00222946404600F062F92F73BDE80A
:10156000FF872DE9F041058A80462D1F4819C01CD0
:10157000B0FBF5F0C6B24046FFF75CFB041E19D085
:101580000020207101206071E58000272546761E2D
:10159000C4F800800BE04046FFF74CFB60B1617976
:1015A000491C6171286005467F1CC0F80080B74265
:1015B000F1D32046BDE8F081204600F002F800207B
:1015C000F8E72DE9F041457901466B1E002201E064
:1015D0000968521C9A42FBD30F680146002605E0B9
:1015E00038460C68FFF745FB2146761CAE42F7D320
:1015F000BDE8F0810121001DFFF700BBFFF74EBBE6
:1016000010B504460121001DFFF70EFB10F0FF0F7F
:1016100004D12046BDE81040FFF7D3BF10BD1CB574
:1016200001920122009201AAFFF78AFA1CBD1CB5A3
:1016300001920022009201AAFFF782FA1CBD826883
:101640000021916082681161826851618268D16075
:10165000826851608068016070474058002800D05F
:101660000120704708B5002242504058009008BD44
:10167000002802D00149800108477047511F00002F
:101680000121B1EB507F01D101207047002070474C
:1016900070B50D4600F02EF904000FD00020FFF7C2
:1016A000A4F8207920B10020FFF7A1F8112070BD27
:1016B0000120256020710020FFF799F8002070BDFF
:1016C0000179006801EB810202EBC101044A02EBDF
:1016D00081010622C0F80025022081F82D00704704
:1016E0007C0000202DE9FC410646007917460D4696
:1016F00000EB8001324A01EBC00102EB8104984605
:1017000094F82D1011B10820BDE8FC812D4951F845
:1017100020103068FFF7BCFF08B11120F4E7C4E9DE
:1017200000780027A76084F8307084F82F70687BF9
:1017300084F832004FF00608CDE9008703233A46CB
:1017400039462868FFF7E8FBCDE90087002203232C
:1017500011466868FFF7E0FBD5E900123068C0F871
:101760000815C0F80C25A968C0F8241521680120C7
:1017700009B331682A7B41F3073100294FEA42124D
:1017800006DA01F00F0101F1E02181F8142D03E0E8
:1017900001F1E02181F80024316841F3073101F0C3
:1017A0001F0300FA03F24909890001F1E021C1F8A1
:1017B0008022C1F8002184F82D000020A4E7000059
:1017C0007C000020581F0000F0B585B015460E467D
:1017D00007461C46142207496846FEF7A3FD8DF80C
:1017E00001600022694638460395019400F004F830
:1017F00005B0F0BD601F000030B40379006803EB52
:10180000830404EBC303054C04EB830413460A462C
:101810000146204630BC00F015BA00007C000020D4
:1018200010B50C46017A052908D0407A38B108482D
:1018300008A102682046FFF769FA00E01AB106A184
:101840002046FFF763FA2046BDE81040FFF76BBA69
:1018500054000020257300000D0A000038B5C3882D
:101860000D46044633B114A0009015A216A12846D7
:10187000FFF74CFA217A05291CD0607A48B1A0887C
:10188000FFF728FC164951F8202016A12846FFF73B
:101890003DFAA0880021FFF7E5FD03461049207AB4
:1018A000143951F8202001B02846BDE830400EA17F
:1018B000FFF72CBA38BD00001B5B306D0000000044
:1018C0001B5B313B33316D0025734C6F67732064B4
:1018D000726F70706564202825642925730D0A00D5
:1018E00054000020257300003C25733E2025733AE8
:1018F000200000000349884201D1034870470020BE
:101900007047000000200040100000202DE9F04149
:101910001400884618D000250E4F032608EB050159
:1019200022460020FEF746FD0544241A40B93878C7
:10193000002809D008494FF47A408847761E05D020
:1019400001203870002CE9D1BDE8F081002038700A
:10195000FAE700001C000020911F00002DE9F84F5D
:10196000204D924689460646984601226946184609
:10197000AF68FEF751FF58B3009800210446801C61
:1019800009E000BF00EA07035AF8212005EB8303B2
:10199000401C491CDA604145F4D34FEA164AFEF771
:1019A00099FF4AEA0041601C384005EB80003C404A
:1019B00005EB8402C160D06866F3C50068F3891046
:1019C00069F39F2020F00300401C20F00400D06049
:1019D00095F8200402E000BFFFF7A2FB0028FBD12E
:1019E000BDE8F88F7C02002038B5044640F20C6058
:1019F0002168890001F1A041C1F8000761688900F0
:101A000001F1A041C1F800072068FFF7B7FA60684C
:101A1000FFF7B4FA216840F20D60890001F1A0419E
:101A2000C1F800076168890001F1A041C1F8000711
:101A30000420FFF71DFE0025606800906846FFF750
:101A40008FFAD0F810050099C84010F0010F02D0AD
:101A5000002D1AD00EE02068FFF778FA0420FFF777
:101A600007FE2068FFF78AFA0420FFF701FE6D1CCD
:101A7000092DE1DB6068FFF769FA0420FFF7F8FD44
:101A80006068BDE83840FFF779BA38BD1FB5094B2B
:101A90000FCB8DE80F00074800231A46694610381F
:101AA000FFF714F908B1FEF795FE02480C38FFF76E
:101AB00007FE1FBD401F00001FB50A4601788DF8C4
:101AC000001001798DF8041041798DF80510017A24
:101AD0008DF80610017B8DF80710016902914069AD
:101AE0000390044850F82210083850F82220684625
:101AF00090471FBD080000202DE9F04F0D464FF420
:101B0000927887B004464146FFF7A7FD4FF0020BDD
:101B100001264FF4827740B141462046FFF7A2FDEF
:101B200039462046FFF799FDC0B34FF48271204635
:101B3000FFF793FDDFF808810100EA4605F10C0983
:101B40004FF000073ED04FF482712046FFF78AFD28
:101B5000142249460AF10400FEF7E4FB95F82E0032
:101B600058B1287B012827D0D4F84C050290287B57
:101B7000022824D0D4F84C0503904FF4B0712046CD
:101B8000FFF770FD4FF4AE712046FFF76BFD95F83F
:101B90003000A8B395F82E0090BB37E0FFE7A868A7
:101BA000C4F80803C5F808B0A868C4F8040326629E
:101BB000666107B0BDE8F08FD4F83C05D6E7D4F8ED
:101BC0003C05D9E74FF4A4712046FFF74BFD287B75
:101BD00068B14FF40070C4F80002801CA860C4F81B
:101BE0000883A868C4F80403A6602662E1E714220B
:101BF00049460AF10400FEF795FB95F8300028B934
:101C00000020C4F80002AF60C4F80883D4F8C4040C
:101C1000C4F8C404810702D58DF8006006E04007CF
:101C200002D58DF800B001E08DF8007095F8300015
:101C300008B985F82F70D5E9002168469047B8E7C4
:101C400002029C012DE9F05F06461F4615460C4630
:101C50004FF0000A4FF0080B4FF48279D068FFF77D
:101C60000FFD00287ED08348C4F8080396F82F00A3
:101C700028B1B068C4F804031120BDE8F09F7807CC
:101C800003D4F80601D4012000E0002086F82F00DC
:101C90001422294606F10C00FEF744FBC7F300109E
:101CA00086F830006878C4F888054FF482712046C1
:101CB000FFF7D8FC4FF492712046FFF7D3FCF807EA
:101CC0004FF0010800D04046C4F85005B80701D5D0
:101CD000404600E00020C4F84005287800286BD07A
:101CE00001287CD002284DD0032814D04FF0070AD9
:101CF000380704D42878032801D044F80B803068D2
:101D000000286DD0780702D54FF40070B060B0683D
:101D1000C4F80403ABE02869FFF7B2FC10B34FF43A
:101D20008070C4F800026968E868C4F84405C4F823
:101D300048154FF4A8712046FFF794FC4FF4B0719A
:101D40002046FFF78FFC4FF4A4712046FFF78AFC72
:101D5000C4F82080C4F808804FF4A8712046FFF72B
:101D60007CFC00E026E00028F6D04FF4A871204665
:101D7000FFF778FCA9682869C4F84405C4F8481539
:101D80003D4815E06968E868C4F84405C4F848159A
:101D90002869FFF775FC68B12969A868C4F834158B
:101DA000C4F838054FF48450C4F8000240F2022011
:101DB000B0609DE7102060E7E9686868C4F84415E2
:101DC000C4F84805B8060FD54FF48070C4F8000277
:101DD0002948B0604FF4A4794946204601E00CE060
:101DE0001BE0FFF73FFC05E04FF40070C4F8000271
:101DF000801CB060C4F820807AE7E9686868C4F89D
:101E00003415C4F838054FF48050C4F8000240F28D
:101E10000220B0604FF0000BECE745464FF48277AC
:101E20004FF492780BE041462046FFF716FC30B1A4
:101E300041462046FFF716FC25626561B9464946D2
:101E40002046FFF70AFC0028EDD0D4F8C404C4F8FB
:101E5000C404002186F82F1048B10321820701D560
:101E600048F20121400701D548F202218A46504636
:101E700003E7000002029C01000204002DE9F05F6C
:101E80008346DDE90A4A994690460D4608460127F1
:101E900003E000BFB0FBF8F07F1C4045FAD2B94523
:101EA00000D94F465FEACA7012D18CB15FEA8A70DE
:101EB00002D5B9F1000F01D0202607E0302605E059
:101EC00031465846641EFEF7EBFC0CB1A742F7D32F
:101ED0005FF00106B9F1010F02D9A9F1010903E090
:101EE000B5FBF6F0404502D306FB08F6F2E7DFF853
:101EF0003C9000BFB5FBF6F000FB165519F800103A
:101F00005846FEF7CDFCB6FBF8F6002EF2D15FEA9C
:101F1000CA7009D0002C07D0A74205D2202158460C
:101F2000641EFEF7BDFCF5E7BDE8F09F741F0000DE
:101F30000000000000300040000000000100000030
:101F40001B0000001A0000000000980102000000C1
:101F50000338FDD870470000110400002104000080
:101F60000100000000000000000000000000000070
:101F700000000000303132333435363738394142D1
:101F800043444546F50F0000F30F0000ED0F00003D
:101F90000338FDD870470000E40100207F000000F6
:101FA00064020020004040404040404040404141E9
:101FB000414141404040404040404040404040401E
:101FC00040404040400502020202020202020202B8
:101FD00002020202022020202020202020202002B5
:101FE0000202020202029090909090901010101045
:101FF00010101010101010101010101010101010E1
:102000000202020202028888888888880808080874
:102010000808080808080808080808080808080840
:102020000202020240000000A51F00007761726EEC
:10203000696E670064656275670000001B5B313B79
:1020400033306D001B5B306D000000001B5B313BCB
:1020500033316D001B5B313B33326D001B5B313B19
:1020600033336D001B5B313B33346D001B5B313B05
:1020700033356D001B5B313B33366D001B5B313BF1
:1020800033376D00696E666F000000006572726F15
:1020900072000000505253005457494D0000000098
:1020A0005541525400000000554152544500000073
:1020B0007274745F6C6F675F6261636B656E6400FE
:1020C0006170700030210000000000207C000000E2
:1020D00032070000AC2100007C000020AC2800008A
:1020E00042070000841F000000000000B020000034
:1020F0002000002094200000000000009820000034
:1021000000000000A020000000000000A820000047
:1021100000000000C0200000000003033000002089
:1021200028000020300000202401002018000000BA
:10213000000000000000000000000000000000009F
:10214000000000000000000000000000000000008F
:1021500000000000FF000000000000000000000080
:10216000000000000000000000000000000000006F
:10217000000000008C2000002C20000084200000C3
:1021800034200000442000003C2000004C200000CF
:10219000542000005C200000642000006C2000003F
:0C21A000742000007C2000000090D003A0
:0400000500000201F4
:00000001FF
