:020000040000FA
:1000000088290020F902000001030000030300001A
:1000100005030000070300000903000000000000C2
:100020000000000000000000000000000B030000C2
:100030000D030000000000000F030000110300008A
:100040001303000013030000CD0B0000D1090000D2
:10005000E109000013030000130300001303000074
:100060001303000013030000130300001303000038
:100070001303000013030000130300001303000028
:100080001303000013030000130300001303000018
:100090001303000013030000130300001303000008
:1000A00013030000130300001303000013030000F8
:1000B0001303000013030000000000000000000014
:1000C00013030000130300001303000013030000D8
:1000D00013030000130300001303000013030000C8
:1000E00013030000130300001303000000000000CE
:1000F00000000000130300000000000013030000D4
:1001000000000000000000000000000000000000EF
:1001100000000000000000000000000000000000DF
:1001200000000000000000000000000000000000CF
:1001300000000000000000000000000000000000BF
:1001400000000000000000000000000000000000AF
:10015000000000000000000000000000000000009F
:10016000000000000000000000000000000000008F
:10017000000000000000000000000000000000007F
:10018000000000000000000000000000000000006F
:10019000000000000000000000000000000000005F
:1001A000000000000000000000000000000000004F
:1001B000000000000000000000000000000000003F
:1001C000000000000000000000000000000000002F
:1001D000000000000000000000000000000000001F
:1001E000000000000000000000000000000000000F
:1001F00000000000000000000000000000000000FF
:10020000DFF80CD000F050FB00480047B12500009B
:100210008829002030B4044654E8000F0D4644E815
:100220000053002BF8D1156030BC704730B4044641
:1002300054E8000F40EA010544E80053002BF7D1D1
:10024000156030BC704730B4044654E8000F00EA33
:10025000010544E80053002BF7D1156030BC70470E
:1002600030B4044654E8000F80EA010544E8005326
:10027000002BF7D1156030BC704730B4044654E809
:10028000000F00EB010544E80053002BF7D1156087
:1002900030BC704730B4044654E8000FA0EB0105B1
:1002A00044E80053002BF7D1156030BC704770B4A0
:1002B00004464FF0000054E8006F0D68AE4207BFDF
:1002C00044E80023012044E800630E60002B1CBFBB
:1002D0000020F0E770BC704730B4044654E8000FCB
:1002E00088422CBF451A054644E80053002BF5D13F
:1002F000156030BC7047000006488047064800473C
:10030000FEE7FEE7FEE7FEE7FEE7FEE7FEE7FEE7C5
:10031000FEE7FEE7F1090000010200000048704717
:10032000243F000040EA01039B0703D009E008C90D
:10033000121F08C0042AFAD203E011F8013B00F8AA
:10034000013B521EF9D27047D2B201E000F8012BF6
:10035000491EFBD270470022F6E710B513460A4645
:1003600004461946FFF7F0FF204610BD421C10F866
:10037000011B0029FBD1801A7047034611F8012B9D
:1003800000F8012B002AF9D1184670472DE9FE4FDD
:10039000804681EA0300C00F0C46009021F0004126
:1003A00023F00045B8EB0200A94105D240462146A2
:1003B00090461C460B46024623F00040104347D0AF
:1003C000270DC7F30A00C3F30A510290401A0190A7
:1003D00040286BDAC3F3130040F4801B0098924668
:1003E00020B10023D2EB030A63EB0B0B01985946B3
:1003F000C0F14002504600F09AF906460D465046BC
:100400005946019A00F0B2F910EB0800614100244E
:1004100087EA115284EAE7731A4340D0009A62B324
:10042000019A012A4FEA075215DC001B61EB020119
:100430004FF0004202EA0752CDE90042001C41F5AC
:10044000801132462B4600F0B2F903B0BDE8F08FC0
:1004500040462146F9E7001B61EB0201001C41F513
:10046000801300185B412018A2F5001747EB030129
:1004700040EAD570B6196D4111E06D084FEA3606B5
:1004800045EAC0754FEA0752001B61EB0201001CF0
:1004900041F5801149084FEA3000001951413246B8
:1004A0002B4603B0BDE8F04F00F072B9009801226E
:1004B00040000023D0EB020263EBE073009821467A
:1004C0004FEAE074B8EB000061EB0401E9E783F068
:1004D00000435BE781F0004158E72DE9FE4F81EAD8
:1004E000030404F0004421F0004100944FF0000B9D
:1004F00023F0004350EA01045ED052EA03045BD0CB
:10050000C3F30A54C1F30A552C44A4F2F334019402
:10051000A0FB0254C1F3130141F48011C3F3130390
:1005200043F4801301FB024400FB034E840A970A44
:1005300044EA815447EA8357A4FB076802958D0A71
:1005400005FB07854FEA932C04FB0C542705029DFD
:100550004FEA065847EA1637B5EB08056EEB070C6D
:10056000870E920E47EA811742EA8312A7FB020127
:10057000B6EB0B0164EB00042B0D43EA0C335E1861
:1005800044EB1C50DA465146E7FB0201C5F3130465
:100590004FEA0B3343EA14534FEA0432019C43EA17
:1005A0000603A4F10C040294009CCDE900B400F011
:1005B000FEF803B0BDE8F08F00200146F9E72DE911
:1005C000F04D81EA030404F0004B21F0004514468D
:1005D0004FF0000A23F0004150EA050220D054EA0F
:1005E00001021DD0C5F30A570246C5F31303C1F338
:1005F0001300C1F30A5640F4801543F48013A7EBAF
:100600000608101BD64608F2FD3873EB050002D32E
:1006100008F1010801E092185B41B8F1000F03DA1C
:1006200000200146BDE8F08D00204FF48011064601
:1006300084460EE0171B73EB050705D3121B63EB13
:10064000050306434CEA010C49084FEA30009218B2
:100650005B4150EA0107EDD152EA030012D082EA71
:10066000040083EA0501084305D0101BAB4106D204
:100670000122002306E000224FF0004302E06FF069
:10068000010253101AEB06004CEB085110EB0A0064
:1006900041EB0B01BDE8F04D00F07AB80EB5C10F8B
:1006A00080EAE0700844CA07002140F233438DE835
:1006B0000E000A460B4600F07AF803B000BD70B594
:1006C000C1F30A5201F000450024C1F3130140F2C6
:1006D000FF3341F480119A4201DA002070BD40F2EC
:1006E00033439A42A2F2334203DC524200F02EF826
:1006F00000E090402C43F1D0404270BDC1F30A525B
:1007000010B5C1F3130140F2FF3341F480119A4256
:1007100001DA002010BD40F233439A42A2F2334284
:1007200003DC524200F012F810BD904010BD202AA8
:1007300004DB203A00FA02F1002070479140C2F138
:10074000200320FA03F3194390407047202A04DB6A
:10075000203A21FA02F00021704721FA02F3D0403A
:10076000C2F120029140084319467047202A06DB57
:10077000CB17203A41FA02F043EAE07306E041FA6F
:1007800002F3D040C2F1200291400843194670475D
:1007900010B5141E73F1000408DA401C41F1000189
:1007A00092185B411A4301D120F0010010BD2DE9E0
:1007B000F04D92469B4611B1B1FA81F202E0B0FAD7
:1007C00080F220329046FFF7B2FF04460F4640EA1F
:1007D0000A0041EA0B0153465A46084313D011461A
:1007E00053EA010019D0C8F140025046FFF7AEFFAE
:1007F00005460E46504659464246FFF798FF0843C5
:1008000005D0012004E020463946BDE8F08D0020E7
:10081000054346EAE0762C4337430A986305E40A29
:10082000A0EB08000022FD0A44EA47540A3002D532
:1008300000200146E9E7010510196941DDE9084595
:1008400000196941BDE8F04DA2E770B521F0004301
:1008500003430CD0C1F30A550024D5EB040564EB27
:100860000403D617AD1AB34102DB0020014670BD68
:10087000201841EB025170BD30B5041E71F1000427
:1008800004DB4FF00044404264EB0101141E73F19D
:10089000000405DB1C464FF00043524263EB0403A7
:1008A000994208BF904230BD064C074D06E0E06813
:1008B00040F0010394E8070098471034AC42F6D3A7
:1008C000FFF7A2FCC83F0000E83F00002DE9F04D13
:1008D00000231A461B1A8A4103DB00200146BDE8AB
:1008E000F08DC1F30A52C1F3130141F480154FF0AA
:1008F000000BD10702D100186D41521E002704469B
:1009000040F2FF11384601EB620A3E46804602463D
:1009100000204FF48011FFF719FFC2197141BB1875
:1009200046EB0100B4EB030C75EB000C04D3E41AA6
:1009300065EB000517460E46241908F101006D41CC
:1009400080463428E3DDF91946EB0600091BA8416F
:1009500003D24FF0FF32134601E0002213461BEB97
:10096000070046EB0A51BDE8F04DFFF711BF00F05C
:1009700033B9000070B50E46144900EB400001EB9E
:10098000C0051446E86A183520B101280FD00228A6
:1009900005D113E0284600F053F9A04201D200240B
:1009A00011E022463146284600F082F90BE0284645
:1009B00000F046F9A042F4D20446F2E73146284658
:1009C00000F049F90446204670BD0000DC06002016
:1009D0000149024802F08CBFB800002000300040FE
:1009E00002494FF0402002F083BF0000EC000020DD
:1009F00030B54FF0805000228300D0F83011C3F89A
:100A00000C21C3F81021624B1A60624B1B68624CC8
:100A10002360604B1B1D1B68241D23605D4B083346
:100A20001B68241D23605B4B0C331B68241D236053
:100A3000584B10331B68241D2360564B14331B681E
:100A4000241D2360534B18331B68534C2034236000
:100A5000504B1C331B68241D23604E4B20331B68F6
:100A6000241D23604B4B24331B68241D2360494BFA
:100A700028331B68241D2360464B2C331B68241D20
:100A80002360444B30331B68434C40342360414B5C
:100A900034331B68241D23603E4B38331B68241DF0
:100AA00023603C4B3C331B68241D2360394B40338F
:100AB0001B68241D23600124082902D1D0F8343199
:100AC00013B1082904D006E0354B3449196005E01C
:100AD000D0F8343113B1082904D006E0314BFB21A2
:100AE000196005E0D0F8343113B1082908D00EE0C0
:100AF00090F858322C48016863F30301016002E06A
:100B0000D0F834311BB929494FF4007008602848E7
:100B10000168C90702D06FF0010101602548016832
:100B200041F470010160BFF34F8FBFF36F8F4FF03F
:100B30001021D1F80002002803DBD1F804020028BC
:100B400022DA1D4B1C601D480468002CFCD01224C6
:100B5000C1F800420568002DFCD0C1F804420168CC
:100B60000029FCD01A6001680029FCD0BFF34F8F28
:100B700010487C380168124A01F4E06111430160B9
:100B8000BFF34F8F00BFFDE70F490E48086030BD2F
:100B9000380500400404001020C5004048810300CF
:100BA0008C56004018F50040E40E0040409602408C
:100BB0000004004088ED00E004E5014000E401404D
:100BC0000400FA050090D003B0000020014800683E
:100BD000004700002000002010B5124C02202061C8
:100BE000606111A0A06104F17800E0614FF4007031
:100BF00020620020A06260620BA1A164E06204F5A3
:100C00001E71E1641021A065C4E91410E06509A11A
:100C1000E01DFFF7B2FB08A12046FFF7AEFB202046
:100C2000A07110BDDC0600205465726D696E616CA8
:100C300000000000525454005345474745520000FD
:100C40000269C1688A4203D88068401A104400E0F3
:100C5000501A401E70472DE9F047C4681746894670
:100C600006464FF000083069A04201D9051B02E09A
:100C7000B168201A0D1AB0686D1E001BA84200D87A
:100C80000546BD4200D33D4670682A462044494689
:100C9000FFF748FBB0687F1B2C44A844A944A0423E
:100CA00000D10024F460002FDDD14046BDE8F0877C
:100CB0002DE9F04104468846D4E90207C51BE168E6
:100CC000606816460844B54206D94146FFF72AFB3C
:100CD000B819E060BDE8F0812A464146FFF722FBE3
:100CE000761B08EB050132466068FFF71BFBE660E8
:100CF000F0E703B401984100009850EAC12018BF02
:100D000004204A0D18BF40F0010040F2FF72B2EB20
:100D1000515F08BF40F00200012808BF052002B063
:100D200070470000000000002DE9F04D2DED040B90
:100D30002DED0E8B96B0DDE92550279CDDF890A0B7
:100D400025F0004624F00048BAF1000F14BF01213D
:100D5000002101EB4502FC4953184A1093422AD363
:100D6000002814BF0123002303EB44030B44F7497D
:100D70008B4220D358EA00019FEDF59B76D0DFF837
:100D8000D8B35D4503D1BAF1000F05D188E0BAF1BF
:100D9000000F08BF002100D0012101EB450111F532
:100DA000001F08D8002814BF0121002101EB4401D5
:100DB00011F5001F0BD99DED261B9DED240B16B0E0
:100DC000BDEC0E8B04B0BDE8F04D00F069BE00270D
:100DD000002DBCBFE149884521DAE1498845A8BF1B
:100DE00002271CDAC3451ADCDE4901EB285114291D
:100DF00008DDC1F1340220FA02F101FA02F2824266
:100E00000DD108E058B9C1F1140228FA02F101FA33
:100E100002F2424503D101F00101C1F1020756EA95
:100E20000A0124D1002C22DA002D18BF022F01D094
:100E3000012F0AD0022000F07FFE16B0BDEC0E8B11
:100E400004B0BDE8F04D00F013BE022000F074FEC7
:100E500000F00EFE51EC100B81F0004141EC100B44
:100E600016B0BDEC0E8B04B0BDE8F08D18E09FED20
:100E7000BEAB9FEDBF8B002871D1B848804522D111
:100E800005F1804010F5801008BFBAF1000F07D0BF
:100E9000B3450ADC002CA8BF9DED260BE0DA0DE07F
:100EA000B0EE490AF0EE690ADAE7002C06DA9DEDA9
:100EB000260B51EC100B81F000416FE0AE487844F6
:100EC00090ED000BCCE7D8454DD1002C48DA2EB17F
:100ED00086423AD1BAF1000F42D126E0BAF1000FB2
:100EE00013D0022000F028FE00F0F6FD8DED020B7D
:100EF0009DED240B8DED000B10EE900A039961F32C
:100F00001E0003909DED020BAAE78DED02AB9DED57
:100F1000240B1AEE901A10EE900A8DED000B61F37F
:100F20001E0003909DED020B9AE78DED028B9DED67
:100F3000240B18EE901A10EE900A8DED000B61F361
:100F40001E0003909DED020B8AE709DA9DED240B4C
:100F500051EC190B53EC102BFFF731FB1EE020E096
:100F60009DED240B7CE786421BDAB4F1804F0DD057
:100F7000A4F10050B0F1FF5013D1002D11DB9DED15
:100F8000240B51EC100B02F06DFB07E09DED240BE0
:100F900053EC102B51EC100B00F0C2BC41EC100BC9
:100FA0005EE79DED240B51EC100B01F06FF9BAF1E7
:100FB000000FCDE90E0142D19FED710B46B3A6F1B2
:100FC000E040B0F17F600CD05E4538D1002D00DAF2
:100FD000A7B3022F0CBF01204FF0FF30FFF75EFBDD
:100FE000DCE7002D01DD002C0DDA002D01DD002CE9
:100FF0001FDB002D16DA002C14DB012F08BF9FED3C
:10100000620B3FF42DAFB0EE4A0AF0EE6A0A27E712
:10101000022F18BF002D0CD0012F0AD1002DFFF692
:101020001FAF06E0002DB8BF002C08DA012F3FF4F7
:1010300017AFB0EE480AF0EE680A11E71BE0012096
:1010400000EBE57050EA070115D0791EB0EE498A31
:10105000F0EE698A084308BF9FED4D8B4E4800258E
:10106000804570DD4D494E48884514DDB0420DDBAA
:10107000002C19DB2FE0012000F05EFD16B0BDEC66
:101080000E8B04B0BDE8F04D00F016BDB34502DC98
:10109000002C09DC1FE0864202DA002C1BDA03E098
:1010A0005E452BDD002C16DD022000F045FD00F032
:1010B00013FD8DED020B53EC1A2B51EC180BFFF7BF
:1010C0000CFACDE900010399019861F31E00039029
:1010D0009DED020BC4E6022000F02EFD00F00CFD99
:1010E00010EE901A18EE900A8DED020B8DED008B2C
:1010F00061F31E0003909DED020BB1E69DED0E0B1A
:1011000053EC192B51EC100BFFF7E1F99FED260B77
:10111000CDE9080153EC102B9DED080B51EC100BA1
:10112000FFF7DBF99FED221B53EC112BFFF7D2F9F0
:101130009DED081B53EC112BFFF7CFF99FED1E1B04
:1011400053EC112B3CE08CE0FFFF1F00FFFF0F0072
:10115000000000000000F03F0000F03F0000F07FC2
:101160000000404301FCFFFF000000000000F07F92
:1011700000000000000000006630000000000000D9
:101180000000000000000080000000000000F0FFF0
:10119000000000000000F0BF0000E0410000F0434C
:1011A000FFFFEF3F00000000000000000000D03F04
:1011B000555555555555D53F000000000000E03FFE
:1011C000FFF788F99DED080B41EC1A0B53EC102B3F
:1011D00051EC100BFFF781F953EC1A2BFFF77DF957
:1011E00041EC1A0B9FEDFE0B53EC102B9DED080B01
:1011F00051EC100BFFF771F941EC1B0B9FEDFA0B53
:1012000051EC1A0B53EC102BFFF767F941EC1A0B5A
:101210009FEDF70B53EC102B9DED080B51EC100BD1
:10122000FFF75BF953EC1A2BFFF751F941EC1A0B5E
:1012300051EC1B0B53EC1A2BFFF7A8F80690CDE9E5
:1012400006519DED060B53EC1B2B51EC100BFFF7D9
:101250003EF953EC1A2BFFF73DF941EC100B00F06F
:10126000A1B90020B6F5801F0EDA9FEDE30B53EC19
:10127000102B9DED0E0B51EC100BFFF72EF9CDE965
:101280000E016FF034000E4600EB2650A0F2FF373F
:10129000C6F31300DA4940F07F6646F040568842B4
:1012A000D8BF002408DDD7498142C8BF012403DC30
:1012B0000024A6F580167F1CD348784400EBC400B8
:1012C0000F9690ED00CB9DED0E0B53EC1C2B51ECCB
:1012D000100BFFF7FCF89DED0E0B41EC1B0B53ECD4
:1012E0001C2B51EC100BFFF751F841EC100B51EC9B
:1012F000190B53EC102BFFF762F941EC1D0B51EC6D
:101300001B0B53EC1D2BFFF7E8F841EC1A0BBF4801
:101310008DED10AB7844109590ED000B4FF0005020
:1013200040EA660000EB84408DED080B00F50020DC
:1013300009909DED080B53EC1C2B51EC100BFFF7A3
:10134000C6F89DED0E1B53EC112BFFF7C3F841ECD3
:10135000100B53EC102B9DED100B51EC100BFFF705
:10136000BCF89DED080B41EC1C0B53EC102B9DEDD4
:10137000100B51EC100BFFF7B0F853EC1B2BFFF7E1
:10138000A9F853EC1C2BFFF7A2F853EC1D2BFFF729
:10139000A4F841EC1C0B53EC1A2B51EC1A0BFFF781
:1013A0009CF841EC1B0B9A480621B0EE4B0AF0EE7C
:1013B0006B0A784400F0E0FAB0EE401AF0EE601AE2
:1013C000B0EE41DAF0EE61DA53EC1B2B51EC1B0B63
:1013D000FFF783F853EC1D2BFFF77FF89DED100B03
:1013E00041EC1B0B53EC1A2B51EC100BFEF7CEFF0C
:1013F00053EC1C2BFFF771F853EC1B2BFEF7C6FFC9
:101400009DED100B41EC1B0B53EC102B51EC100B12
:10141000FFF763F841EC1D0B9FED7FEB53EC1E2BA8
:10142000FEF7B4FF53EC1B2BFEF7B0FF0890CDE99D
:1014300008519DED080B53EC1E2B51EC100BFFF7E0
:1014400046F853EC1D2BFFF742F853EC1B2BFFF72C
:1014500041F89DED080B41EC1D0B53EC102B9DED5D
:10146000100B51EC100BFFF738F841EC1B0B53EC51
:101470001A2B51EC1D0BFFF730F89DED080B41ECDA
:101480001A0B53EC102B51EC1C0BFFF726F853EC06
:101490001A2BFEF77BFF41EC1A0B51EC1B0B53ECA4
:1014A0001A2BFEF773FF0C90CDE90C519DED0C0B40
:1014B00053EC1B2B51EC100BFFF709F853EC1A2BD4
:1014C000FFF708F841EC1B0B9FED550B53EC102B6D
:1014D0009DED0C0B51EC100BFEF7FFFF41EC1A0BCE
:1014E0009FED510B51EC1B0B53EC102BFEF7F5FF4E
:1014F00041EC1B0B9FED4E0B53EC102B9DED0C0B99
:1015000051EC100BFEF7E9FF53EC1B2BFEF73EFFEF
:1015100041EC100B4848784400EBC40090ED001BF0
:1015200051EC100B53EC112BFEF730FF41EC1B0B71
:101530003846FFF7B3F8CDE9080153EC1B2B51EC0B
:101540001A0BFEF723FF41EC100B3C48784400EBEC
:10155000C40090ED00CB51EC100B53EC1C2BFEF7AC
:1015600015FF9DED081B53EC112BFEF70FFF0690A6
:10157000CDE906519DED080B53EC102B9DED060BAC
:1015800051EC100BFEF7A3FF53EC1C2BFEF79FFF53
:1015900053EC1A2BFEF79BFF53EC1B2BFEF79AFF25
:1015A00041EC100B9DED261B53EC102B8DED001B19
:1015B00000959DED260B51EC100BFEF78EFF9DED77
:1015C000000B41EC1A0B53EC102B9DED260B51EC4C
:1015D000100BFEF77CFF9DED061B53EC112B2FE04B
:1015E000000000604715F73FFE822B654715F73F67
:1015F00044DF5DF80BAE543E0000000000004043A5
:101600008E9803007AB60B005A2B0000102C0000B5
:10161000922A0000000000000000000000000840C6
:10162000000000E009C7EE3FFD033ADC09C7EE3FCA
:10163000F5015B14E02F3EBE1E290000D8280000F3
:10164000FEF74BFF53EC1A2BFEF7A0FE9DED060BA9
:1016500041EC1A0B53EC102B9DED000B51EC100BD1
:10166000FEF73BFFCDE90C019DED0C0B51EC1A0B85
:1016700053EC102BFEF78AFECDE902010C46AA4975
:101680008C422FDB611A084318D19DED0C0B53ECF3
:10169000102B9DED020B51EC100BFEF718FF41ECE7
:1016A0001B0B9FEDA30B51EC1A0B53EC102BFEF709
:1016B0006DFE53EC1B2BFFF7DFF82DD2022000F05C
:1016C0003BFA00F009FA10EE901A18EE900A8DED30
:1016D000020B8DED008B61F31E0003909DED020B5C
:1016E000FFF7BEBB944A24F00041914214D39349C2
:1016F000214408437FF4EFAC9DED0C0B53EC102B11
:101700009DED020B51EC100BFEF7E1FE53EC1A2B92
:10171000FFF7B2F87FF6DFAC24F000408849894A31
:10172000002601EB205182422BDA481C4FF4801135
:1017300021FA00F02044844AC0F30A517A44A1F20D
:10174000FF3192ED000B814A8DED080BCA4020EA73
:101750000202C0F3130040F48010C1F1140120FA1A
:1017600001F60992002CB8BF76429DED080B53ECB0
:10177000102B9DED0C0B51EC100BFEF7A8FECDE9E4
:101780000C019DED0C0B51EC1A0B53EC102BFEF7DA
:10179000FDFD9FED6F0B0890CDE9085153EC102B28
:1017A0009DED080B51EC100BFEF797FE41EC1B0B67
:1017B0009FED690B53EC102B9DED080B51EC100BBA
:1017C000FEF78BFE9DED0C0B41EC1C0B53EC102B2C
:1017D0009DED080B51EC100BFEF779FE53EC1A2B24
:1017E000FEF778FE9FED5E1B53EC112BFEF775FEA6
:1017F00053EC1C2BFEF7CAFD41EC1A0B51EC1B0BF2
:1018000053EC1A2BFEF7C2FDCDE902019DED020B50
:1018100053EC1B2B51EC100BFEF759FE53EC1A2B1B
:10182000FEF758FE9DED020B41EC1A0B53EC102B0A
:1018300051EC100BFEF751FECDE908014A489DED31
:10184000080B0521784400F097F89DED081B51EC3A
:10185000100B53EC112BFEF740FE9DED021B53ECD9
:10186000112BFEF737FECDE906019DED020B53EC7F
:101870001A2B51EC100BFEF730FE53EC1A2BFEF72F
:1018800085FD9FED3B0B41EC1A0B53EC102B9DEDAE
:10189000060B51EC100BFEF71AFE9DED060B41EC0A
:1018A0001B0B53EC102B9DED020B51EC100BFEF7B4
:1018B00014FE53EC1B2BFEF782FE53EC1A2BFEF7A3
:1018C00006FE9DED021B53EC112BFEF700FE53ECC0
:1018D000192BFEF7FFFDCDE9020101EB06500115C2
:1018E0000029C8BF039015DC9DED020B324651EC78
:1018F000100BFEF7AAFFFFF7FCF9042808BF00F061
:10190000FBF832469DED020B51EC100BFEF79DFFEC
:10191000CDE902019DED020B51EC180B53EC102B9D
:10192000FEF7DBFDFFF73ABB00009040000000002F
:10193000FE822B654715973C00CC904000346F3FEA
:1019400001FCFFFF0000E03FE8270000FFFF0F0061
:1019500000000000432EE63F396CA80C615C20BEFD
:10196000EF39FAFE422EE63F30260000000000006C
:10197000000000000000004070B504462DED028B11
:101980004D1E00EBC500B0EE408AF0EE608A90ED8F
:10199000000B35F0060017D053EC182B51EC100B50
:1019A000FEF79BFD41EC100B6D1E04EBC50090EDA6
:1019B000001B51EC100B53EC112BFEF7E7FC41EC34
:1019C000100B35F00600E7D1022D36D0042D1CD0C7
:1019D000062D1CBFBDEC028B70BD53EC182B51ECD7
:1019E000100BFEF77AFD94ED0A1B53EC112BFEF75A
:1019F000CDFC53EC182BFEF770FD94ED081B53EC57
:101A0000112BFEF7C3FC41EC100B53EC182B51ECDF
:101A1000100BFEF762FD94ED061B53EC112BFEF745
:101A2000B5FC53EC182BFEF758FD94ED040B53EC6A
:101A3000102BFEF7ABFC41EC100B53EC182B51ECC8
:101A4000100BFEF74AFD94ED021B53EC112BFEF731
:101A50009DFC53EC182BFEF740FD94ED001B53EC5E
:101A6000112BFEF793FCBDEC028B41EC100B70BD0B
:101A70009FED070B10B553EC102B9FED070B51ECAE
:101A8000100BFEF79CFD41EC100B10BD0000000098
:101A90000000000000000000000000000000F03F17
:101AA00010B553EC112B51EC100BFEF76FFC41EC11
:101AB000100B10BD000000009FED050B10B553EC9E
:101AC000102B51EC100BFEF77AFD41EC100B10BD02
:101AD00000000000000000009FED050B10B553EC66
:101AE000102B51EC100BFEF7F8FC41EC100B10BD65
:101AF00000000000000000709FED050B10B553ECD6
:101B0000102B51EC100BFEF7E8FC41EC100B10BD54
:101B1000000000000000001002E008C8121F08C109
:101B2000002AFAD170477047002001E001C1121F5E
:101B3000002AFBD17047000001490860704700008F
:101B4000B4000020C007400F01F0010140EA41004D
:101B500002F00101084301F06FBD000072B601F010
:101B6000CFFA00BF01F014F90028FBD11148124947
:101B7000401AC408012000EB044010A101F020FA33
:101B800011480068C00700D000BE022000EB0440EE
:101B90000EA101F015FABFF34F8F0B48E43801682E
:101BA0000E4A01F4E06111430160BFF34F8F00BFA3
:101BB000FDE7000018400000F83F00004661746136
:101BC0006C206572726F7200F0ED00E053797374EF
:101BD000656D207265736574000000000400FA05ED
:101BE0000EB500210091CDE901106A4644F20100D2
:101BF000FFF7B4FF0EBD00F003B800F009B8000015
:101C000072B602480168491C016070472800002034
:101C100003490868401E086000D162B670470000A2
:101C2000280000202DE9F0470546861C90460F4607
:101C30004FF001090020FFF7DEFF1B4C20683860E1
:101C4000D4E90001401AA16804F21C47081A0EE00A
:101C50000121384600F0F0FD00F05CFC01463846FA
:101C600000F0EAFDD4E90001401AA168081A401CFE
:101C70008642EDD8B8F1000F03D0052065F3891036
:101C800002E0062065F39F50A2682168114004EB32
:101C90008101C8602068304420600020FFF7ADFF5C
:101CA0004846BDE8F0870000B802002030B48268E2
:101CB0000468531C8360A154D0E901128A4202D304
:101CC00030BC00F068BE30BC70470000034803C859
:101CD000814201D10120704700207047B8020020E6
:101CE00000F0070001F00701142282400144102097
:101CF000884010447047000010B52DED068BFEF7AC
:101D0000CDFC41EC180B38483849C07851F8200018
:101D1000FEF7C4FC41EC100B51EC180B53EC102BEC
:101D2000FEF74DFC324C41EC180BE069FEF7B6FCB7
:101D300053EC182BFEF7D1FB41EC190B6069FEF751
:101D4000ADFC53EC192BFEF721FB53EC182BFEF7DF
:101D5000C4FB41EC190B2069FEF7A0FC53EC192BD6
:101D6000FEF714FB41EC100B1F48143890ED081BD4
:101D700051EC100B53EC112BFEF7AFFB41EC190BA0
:101D8000206AFEF78BFC53EC182BFEF7A6FB41EC08
:101D90001A0BA069FEF782FC53EC1A2BFEF7F6FA39
:101DA00053EC182BFEF799FB41EC1A0BE068FEF799
:101DB00075FC53EC1A2BFEF7E9FA53EC182BFEF7DF
:101DC0008CFB41EC180BA068FEF768FC53EC182B59
:101DD000FEF7DCFA53EC192BFEF7D8FABDEC068BB4
:101DE000BDE81040FEF76BBC9C000020F43D0000F5
:101DF0006409002010B52DED028BFEF74FFC41EC7D
:101E0000180B16481649407851F82000FEF746FC9A
:101E100041EC100B51EC180B53EC102BFEF7CFFBE1
:101E200041EC180B0D480F4C143880ED088B60689E
:101E3000FEF734FC53EC182BFEF74FFB41EC180B6C
:101E40002068FEF72BFC53EC182BFEF79FFABDEC35
:101E5000028BBDE81040FEF732BC00009C00002061
:101E6000F43D00006409002070B5174A00F0070532
:101E700001F00704526844EA05110620904700B2B9
:101E800010B14FF0FF3070BD032C4FF002034FF044
:101E900004024FF0090101D9012000E0002001F007
:101EA00043FF0949060001F114010AD08878A842CD
:101EB00002D1CA78A24202D0C978FFF7D5FF3046D6
:101EC00070BD8D70CC70FAE7880000202DE9F041DC
:101ED000194C01F0070500F007062179A4F114025E
:101EE00045EA0610C90740EA116152680720904789
:101EF00000B218B14FF0FF30BDE8F081032D4FF074
:101F000003034FF008024FF0090101D9012000E05E
:101F1000002001F009FF07000AD02078B04202D16A
:101F20006178A94202D06178FFF7D0FF3846E3E735
:101F300026706570FAE700009C00002000F0E4BC09
:101F40002DE9F04180462DED068B82B00027084632
:101F5000009701F0DDFB060010D1524DE978FFF744
:101F6000BFFE0A21B0FBF1F0A5F1140421698847F6
:101F700021690A208847A07828B1B01E02B0BDECC4
:101F8000068BBDE8F08104221021082001F01AFB25
:101F9000277001287ED10321E3686A460020984714
:101FA00006B216B14FF0FF30E8E79DF800009DF84B
:101FB0000110000440EA01209DF8021008430102CC
:101FC00001D5A0F18070FEF769FB41EC180BE878B1
:101FD000354951F82000FEF761FB41EC100B51EC44
:101FE000180B53EC102BFEF7EAFA304D41EC180BAE
:101FF000E869FEF753FB53EC182BFEF76EFA41EC41
:10200000190B6869FEF74AFB53EC192BFEF7BEF972
:1020100053EC182BFEF761FA41EC190B2869FEF717
:102020003DFB53EC192BFEF7B1F994ED081B53EC73
:10203000112BFEF752FA41EC190B286AFEF72EFB22
:1020400053EC182BFEF749FA41EC1A0BA869FEF77E
:1020500025FB53EC1A2BFEF799F953EC182BFEF7DE
:102060003CFA41EC1A0BE868FEF718FB53EC1A2B0C
:10207000FEF78CF953EC182BFEF72FFA41EC180BF6
:10208000A868FEF70BFB53EC182BFEF77FF953EC17
:10209000192B00E003E0FEF779F9C8E900013046AA
:1020A0006CE700009C000020F43D00006409002063
:1020B00010B500220F210D2001F084FAC0B210BD2E
:1020C00010B50422F0210D2001F07CFAC0B210BD41
:1020D0007CB5294C251D85E80F000020A070FFF776
:1020E000E7FF0125C8B9FFF7EBFF002815DB072242
:1020F0008021282001F066FA00280EDB04F1140686
:10210000C0B2072330718022194601F00DFE00286D
:1021100003DB00F035F8002801DAA5707CBD01F082
:10212000D9FA03210220FFF7D1FE03210220FFF795
:102130009BFE7178684600F0EBFA01F0CBFAA078CC
:102140000028EBD1A52162680E2090479621626895
:102150000F20904702216268622090470021626848
:102160000E209047002162680F209047717801A8E7
:1021700000F0CEFA7CBD00008800002000F0C8BA54
:1021800000B53B4B85B01221DB686A4610209847AA
:1021900018B14FF0FF3005B000BD9DF800009DF86C
:1021A0000120000140EA121132480B05016002D5FE
:1021B000A1F580510160490801609DF8021002F00C
:1021C0000F0241EA022141600A0502D5A1F58051C2
:1021D00041609DF803109DF80420090341EA0211B3
:1021E0009DF8052041EA121181600B0302D5A1F58B
:1021F0008011816011079DF80620090B41EA022138
:102200009DF807201143C1600A0302D5A1F5801192
:10221000C160BDF8081049BA01610A0402D5A1F5F0
:1022200080310161BDF80A1049BA41610A0402D542
:10223000A1F580314161BDF80C1049BA81610A04F1
:1022400002D5A1F580318161BDF80E1049BAC16196
:102250000A0402D5A1F58031C161BDF8101049BA58
:1022600001620A0402D5A1F580310162002092E7E3
:10227000880000206409002010B50021024800F009
:10228000E6FA80F3100010BDD406002082B0CDE93C
:10229000000121F0004001909DED000B02B051ECD7
:1022A000100B704738B504460E4B00200090DB68D9
:1022B0006A460321984710B14FF0FF3038BD9DF8B2
:1022C00000009DF80110000440EA01209DF8021072
:1022D0000843010201D5A0F18070FFF70DFD2060D9
:1022E000002038BD8800002070B51B4C0546A07842
:1022F00010B16FF0010070BD2078012807D00228CE
:1023000002D06FF0020070BD0522202101E00422FE
:102310001021082001F056F94FF0FF3188420ED00D
:1023200010B101280BD102E06FF0030070BD2078DE
:10233000002260702270012808D0022801D00846CF
:1023400070BD2846BDE8704000F008B82846BDE8DA
:102350007040FFF7A7BF00008800002038B5044692
:1023600000200F4B00900321DB686A46084698471F
:1023700010B14FF0FF3038BD9DF800009DF80110FE
:10238000000440EA01209DF802100843010201D533
:10239000A0F18070FFF72EFD2060002038BD000006
:1023A0008800002077B581B015000E460BD00120C3
:1023B0000346009001AA77210A4800F0D8FA0028C5
:1023C00002D100240AE00E2004B070BD2A190123B6
:1023D0007721044800F0C8FA641CE4B2B442F5D393
:1023E000F2E70000783D000013B582B001200C46F2
:1023F0000346009002AA7721064800F0B8FA0028A8
:1024000005D1012322467721024800F0ADFA04B03D
:1024100010BD0000783D00001CB502238DF80400BB
:1024200000208DF80510009001AA7721014800F0E6
:102430009EFA1CBD783D00002DE9FC5F0E0083462E
:10244000DDE90C47C6F1000098469246814600D46B
:102450000846012503E000BF90FBFAF06D1C5045D3
:10246000FADAA84500D9454624B1002E01DB7807E9
:1024700000D5641EB80702D5B8F1000F0AD0F807DE
:1024800008D13CB1A54205D220215846641EFFF771
:102490000DFCF6E7002E02DA4E462D2102E0780709
:1024A00003D52B215846FFF701FC07F00300022853
:1024B0000BD1B8F1000F08D13CB1A54205D23021B3
:1024C0005846641EFFF7F2FBF6E7CDE900474346A6
:1024D00052463146584601F0CDFBBDE8FC9F02460E
:1024E00000201268530713D502F00300012802D020
:1024F00002280CD105E0C2F383100B68801C18443D
:1025000004E00223086803EB9252104408600120A3
:10251000704700002DE9FF410026234800F089F9AB
:102520002148001F074600F084F9204C60680090A5
:10253000A56800E000986946284004EB80000C3054
:10254000FFF7CDFF0028F5D101AA009901EA0503A4
:1025500004EB8303491CDB6842F82030401C0091E7
:102560000228F2D3019800F0030001280BD00228C2
:1025700010D10198032101EB90500099BDF80A6039
:1025800001EB900005E00198BDF80A60C0F38310EC
:1025900008440090384600F049F908B1009860609E
:1025A00004B03046BDE8F081D0060020B80200201B
:1025B0002DED028B002184B0084600F06BFD08B1C0
:1025C000FFF70EFB00F0D6FB35483649401AC1082C
:1025D000032000EB0140044633A100F0F1FC00BFF2
:1025E00000F0D6FB0028FBD101F04CF93648072556
:1025F0000FC8FFF76DFD294601A8FFF7BFFD0200D8
:1026000003D0204631A100F0DFFC294602A8FFF7E5
:1026100097FC020004D020462CA100F0D5FC37E046
:102620009FED2E0B53EC102B9DED020B51EC100B7C
:10263000FDF7C5FF41EC100B9FED2A1BFEF774FB65
:102640009FED2A1B51EC100B53EC112BFDF742FFB1
:102650009FED281B53EC112BFDF73FFF9FED278BC0
:1026600053EC182BFDF739FFFEF748F89DED020BF0
:10267000064653EC182B51EC100BFDF72EFFFEF71E
:102680003DF80346204600961EA1019A00F0A3FCE7
:1026900000F07EFB0028FBD1642000F035F9AAE7AA
:1026A00018400000F83F0000507265737375726542
:1026B000206170706C69636174696F6E20737461FE
:1026C000727465642E000000000000204641494CF1
:1026D0002120726574203D20256400000000000068
:1026E000D0BCF840EBE2361AC05BC83F00000000E7
:1026F0000000F03F0000000040A5E54000000000A1
:102700000000594025642025642025640000000055
:1027100070B5194C0646A07810B16FF0010070BD7D
:10272000207810B16FF0020070BD134D1435687839
:10273000884206D00020FFF7C9FB10B14FF0FF30F0
:1027400070BD002201211046FFF7FCF90028F7D1E7
:102750006978FFF7C5FA0A21B0FBF1F021698847D3
:1027600021690A2088473046FFF7BEFD040001D0EA
:1027700000F0B0FF204670BD880000202DE9F04732
:10278000C5881E1DB6FBF5F78946B6FBF5F1044674
:1027900005FB176C407916686843DDF820A0F71830
:1027A000001F874200D9C61A166001E02468491E3E
:1027B0000029FBD1A5EB0C078846B74216D818E0D4
:1027C00004EB0C00001D09EB0803BAF1000F3A46B8
:1027D00002D00146184600E01946FDF7A3FD246823
:1027E000F61B4FF0000CB844B54201D9374600E063
:1027F0002F46002EE4D1BDE8F087000030B5024638
:1028000051B100F065FC0021074C08E034F821309C
:102810001568AB4202D11160002030BD491C8142D5
:10282000F4D3052030BD000000000000002100F0BE
:1028300009B8012100F010B808B56A46FDF71DFD82
:10284000009808BD08B56A46FDF7FDFC08BD08B54F
:102850006A46FDF7DFFC08BD08B56A46FDF7E6FCF1
:10286000009808BD08B56A46FDF714FD009808BD3C
:1028700070B5044600252846FFF7BDF92168626857
:10288000086890420ED9401E08600178238AE268E9
:1028900001FB0325227A2168101AC0B20A7982420C
:1028A00000D208710020FFF7A8F9284670BD70B566
:1028B00005460C460020FFF79EF9E868298A201A91
:1028C000B0FBF1F12A681068431C13600170BDE889
:1028D00070400020FFF791B910B530B1017A42681D
:1028E0000368891AC9B21A6006E00E2010BD036899
:1028F0001A68541C1C601170491EC9B2F7D20068D6
:1029000000210171084610BD2DE9F041040007D0F7
:10291000044E4FF47A47751C3846A847641EFAD116
:10292000BDE8F081703D00002DE9F04106460478D5
:102930000B4815460F4640F82420083040F8243054
:10294000487B10B1084600F04BFF0DB1054A00E08E
:10295000002223463946301DBDE8F04100F002BD9B
:1029600010000020B1380000001D00F06DBD38B52A
:10297000001D049C009400F07FFD38BD0FB408B525
:102980000399002904D004AA00926A4600F00FF8C7
:1029900001B05DF814FB10B582680446002A05D02A
:1029A000D4E90403216898470020A06010BD2DE9F8
:1029B000FC4791460C00804676D014F8011B39B1D3
:1029C00025290ED04046FFF771F920780028F4D170
:1029D00098F80C00002867D04046BDE8FC47FFF798
:1029E000DABF0020012221782B291BD02D2902D00B
:1029F000302908D102E040F0010001E040F002007F
:102A0000641C002AEFD100252A290ED02178A1F1DB
:102A100030020A2A11D205EB850201EB4205641C43
:102A2000303DF1E740F00400EAE7D9F800100B1D53
:102A3000C9F800300968641C0D44217800232E2950
:102A40000BD114F8011FA1F130020A2A05D203EBC1
:102A5000830201EB4203303BF3E76C290DD0682978
:102A60000BD0692921D00BDC252918D0582931D069
:102A700063290ED0642915D117E014F8011FECE783
:102A8000702969D0732932D075291BD0782909D1D2
:102A900020E0D9F80000011DC9F800100178404677
:102AA000FFF704F9641C90E76CE0D9F800100A1DE8
:102AB000C9F800200968CDE900500A224046FFF716
:102AC000BBFCEFE7D9F800100A1DC9F8002009681F
:102AD0000A2206E0D9F800100A1DC9F8002009688A
:102AE0001022CDE90050404601F0C4F8DAE7D9F8E9
:102AF000001000270A1DC9F800200E68C00705D184
:102B000012E04046761C7F1CFFF7D0F83178002990
:102B1000F7D104E0202140466D1EFFF7C7F8BD4203
:102B2000C0D9002DF6D1BDE74EB13046FDF71EFCF1
:102B3000074604E0202140466D1EFFF7B7F8BD426E
:102B400006D9002DF6D103E04046761CFFF7AEF81B
:102B500031780029F8D1A5E7D9F80000011DC9F89E
:102B60000010056830214046FFF7A0F87821404664
:102B7000FFF79CF808200021CDE900010346102250
:102B80002946B0E7BDE8FC8770B52028DDE904657B
:102B900002D24FF0A04402E0074C00F01F0041EACF
:102BA000420141EA830141EA062104EB800041EA47
:102BB0000541C0F8001770BD0003005001B568461C
:102BC00000F006F8009A01219140C0F80C1508BDEC
:102BD0000168202902D24FF0A040704701F01F0188
:102BE00001600148704700000003005001B56846CD
:102BF000FFF7EEFF009A01219140C0F8081508BDCB
:102C000030B5154A01460020D2F8104423460AE0A8
:102C1000DB681D79854205D1401C0A28F6DB4FF0A0
:102C2000FF3030BD1B68002BF2D1431CF9D0CB68BC
:102C30001871D2F8103443B1DB68CC681B6823608C
:102C4000D2F81024D268116030BDC2F81014C968DF
:102C500000220A6030BD0000B80200207047FDF776
:102C600086BE704708B5034A00924023024A00F02E
:102C700005F808BDE935000020010020F0B595B049
:102C80001C4615460F4608461A9E00F0F3FA182116
:102C900009A8FDF760FB0E96CDE909540023082230
:102CA00003A9384600F0FBFA05980690BDF810001D
:102CB000ADF81C00BDF81200ADF81E0000208DF824
:102CC00021000398082600F00300012802D0022802
:102CD00018D032E003983346850AC0F3C2008DF85D
:102CE000200003980FA9C0F38314A200384600F017
:102CF000D6FA09A8009006AB22460FA9284600F094
:102D000015FA1AE00398840DC0F3C2008DF8200074
:102D1000082C01D2254600E0082533462A460FA993
:102D2000384600F0BCFA2E44641B09AB06AA2946BB
:102D30000FA800F059F9002CEAD1384600F0A0FAAB
:102D400015B0F0BD0A4A012902EBC00007D00229E4
:102D500007D0032907D0042907D00020704702209C
:102D60007047042070470079704740797047000031
:102D7000F83F000010B5FFF772FF04210348FFF78A
:102D80003FFF02490120C968487110BDE83F0000BB
:102D90002DE9F0478CB0FEF799FF18B100200CB078
:102DA000BDE8F0877D4C0020C4F81804BFF34F8FB6
:102DB00060680290A5684FF00008284004EB80008E
:102DC0000CE000BFD4F8180470B921680298814261
:102DD00001D86160E2E7284004EB80000C3002A9D2
:102DE000FFF77DFB0028EDD1002003AA029901EA3C
:102DF000050304EB8303491CDB6842F82030401CC8
:102E000002910228F2D3039800F00300022802D0B6
:102E100001284DD0A7E003985022810D8946B2EBDE
:102E2000905F00D850210E4666F39F500390083102
:102E30005B4800F0D6F9070078D000F01BFA434653
:102E4000082203A9384600F032FA029908F1080A6C
:102E50002940681A8000001D864222D94F4D0C354A
:102E600030B1C2B204EB8101301A90460C3104E05B
:102E70002946F2B2002590462846C6B25346384647
:102E800000F015FA0AEB080325B132462946384608
:102E900000F00DFA029909F1030001EB9000029095
:102EA0003BE004EB81015346324638460C31EFE7F4
:102EB0000398C0F38310062800D30620039960F31B
:102EC0008911C1F38310801C03918100344800F004
:102ED00088F9070047D000F0CDF94346082203A93E
:102EE000384600F0E4F908F1080800260FE00298DF
:102EF000434600EA0501401C04EB810102900422D4
:102F000038460C3100F0D3F908F10408761C039818
:102F1000C0F38310B042EAD847B1D4F81054D4F8C3
:102F2000180478B1384600F0ABF931E01BE0E868EE
:102F30004079012804D12A6828463946126890470A
:102F4000E8680568002DF2D1384600F099F90020B4
:102F5000FEF751FED4F8180408B90298606000200A
:102F6000FEF74BFE14E0D4F8104405E0216820463B
:102F700089688847E0680468002CF7D109480A4945
:102F8000401AC008022101EB004008A100F018F827
:102F9000FEF79CFE80F0010001E70000B80200206F
:102FA0002040000018400000F83F00004261636BC1
:102FB000656E647320666C7573686564000000005C
:102FC00000231A4600F0C6BB08B5012300926A46EA
:102FD00000F0C0FB08BD3EB5069C8DE81C00032335
:102FE0006A4600F0B7FB3EBD2DE9F0470E4680462D
:102FF0001C46924608293ED894F80C900020207375
:103000001946104600F086FA0025B54206D218F897
:1030100005201AA12046FFF7B1FC03E019A12046C4
:10302000FFF7ACFC6D1C082DEFD317A12046FFF76E
:10303000A5FC0025B54210D218F80570FDF76EF911
:103040000068C05D10F03E0F01D03A4600E02E222D
:103050000EA12046FFF792FC03E00DA12046FFF7EA
:103060008DFC6D1C082DE5D301222146504600F051
:1030700033FA84F80C90BDE8F08700002025303248
:1030800078000000202020007C0000002563000064
:10309000200000000B4810B5FF2181600021016075
:1030A0004160C0F81814C0F8141480F820140648C1
:1030B00000F0E4F8002803D1044800F000F90020F3
:1030C00010BD0000B802002020400000E83D0000D4
:1030D00002480349401AC008704700002040000021
:1030E000F83F000013B56846FFF788FB08B10020E1
:1030F0001CBD0248009950F831001CBDF83F00008B
:1031000070B509480125D0F8104480F8205407E034
:10311000E06845712168204649688847E06804688E
:10312000002CF5D170BD0000B80200202DE9FF474A
:1031300081460C9D00200C462F7B2873984616462E
:103140002946184600F0E6F9072E42D2DFE806F0DD
:1031500004090F161F2A360049462846FFF70EFCC1
:1031600037E0494628462268FFF708FC31E0D4E9F9
:10317000002349462846FFF701FC2AE0A06800909A
:10318000D4E9002349462846FFF7F8FB21E0D4E9BB
:103190000201CDE90001D4E9002349462846FFF7A2
:1031A000EDFB16E004F1080007C88DE80700D4E93C
:1031B000002349462846FFF7E1FB0AE004F1080036
:1031C0000FC88DE80F00D4E9002349462846FFF7D1
:1031D000D5FB00222946404600F07EF92F73BDE85A
:1031E000FF872DE9F041058A80462D1F4819C01C34
:1031F000B0FBF5F0C6B24046FFF73AFB041E19D00B
:103200000020207101206071E58000272546761E90
:10321000C4F800800BE04046FFF72AFB60B16179FB
:10322000491C6171286005467F1CC0F80080B742C8
:10323000F1D32046BDE8F081204600F002F80020DE
:10324000F8E72DE9F041457901466B1E002201E0C7
:103250000968521C9A42FBD30F680146002605E01C
:1032600038460C68FFF723FB2146761CAE42F7D3A5
:10327000BDE8F0810121001DFFF7DEBAFFF72CBB8E
:1032800010B504460121001DFFF7ECFA10F0FF0F06
:1032900004D12046BDE81040FFF7D3BF10BD1CB5D8
:1032A00001920122009201AAFFF768FA1CBD1CB529
:1032B00001920022009201AAFFF760FA1CBD826809
:1032C0000021916082681161826851618268D160D9
:1032D000826851608068016070474058002800D0C3
:1032E0000120704708B5002242504058009008BDA8
:1032F000002802D00149800108477047A13D000025
:103300000121B1EB507F01D10120704700207047AF
:1033100070B50D4600F04AF904000FD00020FEF70A
:103320006AFC207920B10020FEF767FC112070BDF7
:103330000120256020710020FEF75FFC002070BD99
:103340000179006801EB810202EBC101044A02EB42
:1033500081010622C0F80025022081F82D00704767
:10336000B80000202DE9FC410646007917460D46BD
:1033700000EB8001324A01EBC00102EB8104984668
:1033800094F82D1011B10820BDE8FC812D4951F8A9
:1033900020103068FFF7BCFF08B11120F4E7C4E942
:1033A00000780027A76084F8307084F82F70687B5D
:1033B00084F832004FF00608CDE9008703233A462F
:1033C00039462868FFF7E0FBCDE900870022032398
:1033D00011466868FFF7D8FBD5E900123068C0F8DD
:1033E0000815C0F80C25A968C0F82415216801202B
:1033F00009B331682A7B41F3073100294FEA4212B1
:1034000006DA01F00F0101F1E02181F8142D03E04B
:1034100001F1E02181F80024316841F3073101F026
:103420001F0300FA03F24909890001F1E021C1F804
:103430008022C1F8002184F82D000020A4E70000BC
:10344000B8000020A83D0000F0B585B015460E4636
:1034500007461C46142207496846FCF763FF8DF8AF
:1034600001600022694638460395019400F020F877
:1034700005B0F0BDB03D00002DE9F04186B00E462C
:1034800080461C461546142168460C9FFCF763FFD6
:103490008DF80160039501940FB1202200E0002215
:1034A0006946404600F004F806B0BDE8F08100002F
:1034B00030B40379006803EB830404EBC303054CC9
:1034C00004EB830413460A460146204630BC00F054
:1034D000B5BA0000B800002010B50C46017A0529E5
:1034E00008D0407A38B1084808A102682046FFF7A2
:1034F00045FA00E01AB106A12046FFF73FFA204640
:10350000BDE81040FFF747BA6400002025730000B3
:103510000D0A000038B5C3880D46044633B114A027
:10352000009015A216A12846FFF728FA217A05294E
:103530001CD0607A48B1A088FFF704FC164951F806
:10354000202016A12846FFF719FAA0880021FFF7CE
:10355000C9FD03461049207A143951F8202001B0E2
:103560002846BDE830400EA1FFF708BA38BD00007C
:103570001B5B306D000000001B5B313B33316D0085
:1035800025734C6F67732064726F707065642028B8
:1035900025642925730D0A006400002025730000AE
:1035A0003C25733E2025733A2000000003498842E1
:1035B00001D1034870470020704700000020004000
:1035C0002000002038B51446064A0D466946926828
:1035D000904710B14FF0FF3038BD9DF800002840F3
:1035E000E04038BD880000202DE9F04114008846F5
:1035F00018D000250E4F032608EB050122460020B7
:10360000FDF7B8F90544241A40B93878002809D0E4
:1036100008494FF47A408847761E05D0012038705B
:10362000002CE9D1BDE8F08100203870FAE70000F5
:103630002C000020E13D000070B500F007044FF0C1
:10364000FF36032C07D0042C05D0054D2146082059
:103650006A68904708B1304670BD2C70002070BD7C
:103660008800002000B52DED048B83B041EC190BD0
:10367000FDF72CF941EC180B18EE100A18EE901A11
:103680008DED008B002818BF0120084320F000407A
:10369000C0F17F6000F1E040C00F14D019EE101AA5
:1036A00019EE900A8DED009B002918BF01210843F7
:1036B00020F00040C0F17F6000F1E040C00F04BF87
:1036C0000120FEF739FA51EC180B03B0BDEC048B66
:1036D00000BD00000D4810B5807810B16FF00100FA
:1036E00010BD0020FFF7A8FF0028F9D10123022216
:1036F0000921184600F018FB0028F1DB0123022203
:103700000921BDE81040002000F00EBB8800002019
:103710000F4910B58A7812B16FF0010010BD097819
:1037200011B16FF0020010BD09491431C97881420E
:1037300007D001460020FEF797FB10B14FF0FF3095
:1037400010BD01220021BDE810400846FEF7FAB97D
:10375000880000202DE9F84F204D92468946064604
:103760009846012269461846AF68FEF75BFA58B3DF
:10377000009800210446801C09E000BF00EA07030E
:103780005AF8212005EB8303401C491CDA604145AF
:10379000F4D34FEA164AFEF76FFD4AEA0041601C77
:1037A000384005EB80003C4005EB8402C160D068E6
:1037B00066F3C50068F3891069F39F2020F00300C9
:1037C000401C20F00400D06095F8200402E000BF07
:1037D000FFF7DEFA0028FBD1BDE8F88FB802002021
:1037E00038B5044640F20C602168890001F1A0411F
:1037F000C1F800076168890001F1A041C1F8000724
:103800002068FFF7F3F96068FFF7F0F9216840F2EC
:103810000D60890001F1A041C1F8000761688900CD
:1038200001F1A041C1F800070420FFF761FD002568
:10383000606800906846FFF7CBF9D0F81005009952
:10384000C84010F0010F02D0002D1AD00EE0206801
:10385000FFF7B4F90420FFF74BFD2068FFF7C6F926
:103860000420FFF745FD6D1C092DE1DB6068FFF7C3
:10387000A5F90420FFF73CFD6068BDE83840FFF77C
:10388000B5B938BD1FB5094B0FCB8DE80F00074800
:1038900000231A4669461038FFF746F808B1FEF7CC
:1038A0009FF902480C38FFF74BFD1FBD883D000013
:1038B0001FB50A4601788DF8001001798DF80410C3
:1038C00041798DF80510017A8DF80610017B8DF88D
:1038D00007100169029140690390044850F82210D2
:1038E000083850F82220684690471FBD1800002075
:1038F0002DE9F04F0D464FF4927887B004464146CB
:10390000FFF7EBFC4FF0020B01264FF4827740B13A
:1039100041462046FFF7E6FC39462046FFF7DDFC2E
:10392000C0B34FF482712046FFF7D7FCDFF808815F
:103930000100EA4605F10C094FF000073ED04FF4B4
:1039400082712046FFF7CEFC142249460AF104009A
:10395000FCF7E8FC95F82E0058B1287B012827D009
:10396000D4F84C050290287B022824D0D4F84C05CA
:1039700003904FF4B0712046FFF7B4FC4FF4AE71E2
:103980002046FFF7AFFC95F83000A8B395F82E005D
:1039900090BB37E0FFE7A868C4F80803C5F808B093
:1039A000A868C4F804032662666107B0BDE8F08F1A
:1039B000D4F83C05D6E7D4F83C05D9E74FF4A47118
:1039C0002046FFF78FFC287B68B14FF40070C4F8E5
:1039D0000002801CA860C4F80883A868C4F8040327
:1039E000A6602662E1E7142249460AF10400FCF7CA
:1039F00099FC95F8300028B90020C4F80002AF60A7
:103A0000C4F80883D4F8C404C4F8C404810702D5F8
:103A10008DF8006006E0400702D58DF800B001E0A7
:103A20008DF8007095F8300008B985F82F70D5E949
:103A3000002168469047B8E702029C012DE9F05F3B
:103A400006461F4615460C464FF0000A4FF0080B7D
:103A50004FF48279D068FFF753FC00287ED083486A
:103A6000C4F8080396F82F0028B1B068C4F804031E
:103A70001120BDE8F09F780703D4F80601D4012097
:103A800000E0002086F82F001422294606F10C00E1
:103A9000FCF748FCC7F3001086F830006878C4F8DB
:103AA00088054FF482712046FFF71CFC4FF4927199
:103AB0002046FFF717FCF8074FF0010800D04046FA
:103AC000C4F85005B80701D5404600E00020C4F80E
:103AD0004005287800286BD001287CD002284DD0E2
:103AE000032814D04FF0070A380704D42878032895
:103AF00001D044F80B80306800286DD0780702D5DB
:103B00004FF40070B060B068C4F80403ABE02869FB
:103B1000FFF7F6FB10B34FF48070C4F80002696839
:103B2000E868C4F84405C4F848154FF4A871204665
:103B3000FFF7D8FB4FF4B0712046FFF7D3FB4FF4EB
:103B4000A4712046FFF7CEFBC4F82080C4F808809B
:103B50004FF4A8712046FFF7C0FB00E026E00028E4
:103B6000F6D04FF4A8712046FFF7BCFBA96828697E
:103B7000C4F84405C4F848153D4815E06968E8688C
:103B8000C4F84405C4F848152869FFF7B9FB68B1C3
:103B90002969A868C4F83415C4F838054FF484506E
:103BA000C4F8000240F20220B0609DE7102060E7F8
:103BB000E9686868C4F84415C4F84805B8060FD524
:103BC0004FF48070C4F800022948B0604FF4A47923
:103BD0004946204601E00CE01BE0FFF783FB05E0CF
:103BE0004FF40070C4F80002801CB060C4F820805C
:103BF0007AE7E9686868C4F83415C4F838054FF402
:103C00008050C4F8000240F20220B0604FF0000B78
:103C1000ECE745464FF482774FF492780BE041464B
:103C20002046FFF75AFB30B141462046FFF75AFBCA
:103C300025626561B94649462046FFF74EFB0028DC
:103C4000EDD0D4F8C404C4F8C404002186F82F10C1
:103C500048B10321820701D548F20121400701D56F
:103C600048F202218A46504603E7000002029C0106
:103C7000000204002DE9F05F8346DDE90A4A994617
:103C800090460D460846012703E000BFB0FBF8F060
:103C90007F1C4045FAD2B94500D94F465FEACA7049
:103CA00012D18CB15FEA8A7002D5B9F1000F01D050
:103CB000202607E0302605E031465846641EFDF711
:103CC000F5FF0CB1A742F7D35FF00106B9F1010F80
:103CD00002D9A9F1010903E0B5FBF6F0404502D392
:103CE00006FB08F6F2E7DFF83C9000BFB5FBF6F004
:103CF00000FB165519F800105846FDF7D7FFB6FB24
:103D0000F8F6002EF2D15FEACA7009D0002C07D075
:103D1000A74205D220215846641EFDF7C7FFF5E7EC
:103D2000BDE8F09FC43D00002DE9F8430C4E154658
:103D300088460446B2681F4669464046904718B117
:103D40004FF0FF30BDE8F8839DF80010BC40A94358
:103D50002C40726821434046904700B2F2E70000D1
:103D600088000020000000000000000000000000AB
:103D70000338FDD87047000000000000003000400C
:103D800000000000010000001B0000001A000000FD
:103D90000000980102000000000000000000000088
:103DA0000338FDD870470000D1090000E109000088
:103DB0000100000000000000000000000000000002
:103DC0000000000030313233343536373839414263
:103DD00043444546652C0000632C00005D2C000028
:103DE0000338FDD870470000200200207F0000004B
:103DF000A0020020000008000000180000003800A9
:103E00000000780000E0030000E0070000E00F0081
:103E100000E01F0000000000000000000000F03F74
:103E2000000000000000F83F00000000000000005B
:103E30000000004003B8E23F000000000000000066
:103E400006D0CF43EBFD4C3E033333333333E33FF4
:103E5000FFAB6FDBB66DDB3F4D268F515555D53F20
:103E600001411DA96074D13F65DBC9934A86CD3FEE
:103E7000EF4E454A287ECA3F3E5555555555C53FDC
:103E800093BDBE166CC166BF2CDE25AF6A56113FCE
:103E9000F16BD2C541BDBBBED0A4BE726937663ED0
:103EA000004040404040404040404141414141404D
:103EB0004040404040404040404040404040404002
:103EC0004005020202020202020202020202020291
:103ED0000220202020202020202020020202020296
:103EE00002029090909090901010101010101010EE
:103EF00010101010101010101010101002020202FA
:103F0000020288888888888808080808080808083D
:103F10000808080808080808080808080202020239
:103F200040000000A13E0000000000000000000072
:103F30007761726E696E6700646562756700000084
:103F40001B5B313B33306D001B5B306D00000000AC
:103F50001B5B313B33316D001B5B313B33326D00FA
:103F60001B5B313B33336D001B5B313B33346D00E6
:103F70001B5B313B33356D001B5B313B33366D00D2
:103F80001B5B313B33376D00696E666F00000000CC
:103F90006572726F72000000505253005457494DC1
:103FA0000000000055415254000000005541525499
:103FB000450000007274745F6C6F675F6261636BD1
:103FC000656E6400617070003440000000000020E5
:103FD000B8000000181B0000EC400000B8000020F2
:103FE000D0280000281B0000D43D00000000000085
:103FF000B43F000030000020983F000000000000A7
:104000009C3F000000000000A43F000000000000F2
:10401000AC3F000000000000C43F000000000303AC
:1040200040000020380000204000002060010020F7
:104030001800000019240000E9230000A523000057
:104040003D1F000000000000000000000000000014
:104050000000000000000000000000000000000060
:104060000000000000000000FF0000000000000051
:104070000000000000000000000000000000000040
:104080000000000000000000903F0000303F0000F2
:10409000883F0000383F0000483F0000403F0000DC
:1040A000503F0000583F0000603F0000683F0000A4
:1040B000703F0000783F0000803F000000000000DB
:1040C00000000000000000000000000000000000F0
:1040D00000000000000000000000000000000000E0
:0C40E000000000000090D0030000000071
:0400000500000201F4
:00000001FF
